{
  "contractName": "HealthData",
  "abi": [
    {
      "inputs": [
        {
          "internalType": "string",
          "name": "_name",
          "type": "string"
        },
        {
          "internalType": "string",
          "name": "_date",
          "type": "string"
        },
        {
          "internalType": "string",
          "name": "_totalSteps",
          "type": "string"
        },
        {
          "internalType": "string",
          "name": "_totalDistance",
          "type": "string"
        },
        {
          "internalType": "string",
          "name": "_veryActiveDist",
          "type": "string"
        },
        {
          "internalType": "string",
          "name": "_veryActiveMins",
          "type": "string"
        },
        {
          "internalType": "string",
          "name": "_moderateActiveDist",
          "type": "string"
        },
        {
          "internalType": "string",
          "name": "_fairlyActiveMins",
          "type": "string"
        },
        {
          "internalType": "string",
          "name": "_lightActiveDist",
          "type": "string"
        },
        {
          "internalType": "string",
          "name": "_lightlyActiveMins",
          "type": "string"
        },
        {
          "internalType": "string",
          "name": "_caloriePrediction",
          "type": "string"
        }
      ],
      "name": "insUserData",
      "outputs": [
        {
          "internalType": "string",
          "name": "ack",
          "type": "string"
        }
      ],
      "stateMutability": "nonpayable",
      "type": "function"
    },
    {
      "inputs": [
        {
          "internalType": "string",
          "name": "_name",
          "type": "string"
        }
      ],
      "name": "getUserData",
      "outputs": [
        {
          "internalType": "string",
          "name": "",
          "type": "string"
        }
      ],
      "stateMutability": "view",
      "type": "function"
    }
  ],
  "bytecode": "0x608060405234801561001057600080fd5b50610b79806100206000396000f3fe608060405234801561001057600080fd5b50600436106100365760003560e01c806354ab24031461003b578063bc08b88f1461006b575b600080fd5b610055600480360381019061005091906104f6565b61009b565b60405161006291906105be565b60405180910390f35b610085600480360381019061008091906105e0565b61014e565b60405161009291906105be565b60405180910390f35b60606000826040516100ad9190610844565b9081526020016040518091039020600a0180546100c99061088a565b80601f01602080910402602001604051908101604052809291908181526020018280546100f59061088a565b80156101425780601f1061011757610100808354040283529160200191610142565b820191906000526020600020905b81548152906001019060200180831161012557829003601f168201915b50505050509050919050565b60608b60008d6040516101619190610844565b9081526020016040518091039020600001908161017e9190610a71565b508a60008d6040516101909190610844565b908152602001604051809103902060010190816101ad9190610a71565b508960008d6040516101bf9190610844565b908152602001604051809103902060020190816101dc9190610a71565b508860008d6040516101ee9190610844565b9081526020016040518091039020600301908161020b9190610a71565b508760008d60405161021d9190610844565b9081526020016040518091039020600401908161023a9190610a71565b508660008d60405161024c9190610844565b908152602001604051809103902060050190816102699190610a71565b508560008d60405161027b9190610844565b908152602001604051809103902060060190816102989190610a71565b508460008d6040516102aa9190610844565b908152602001604051809103902060070190816102c79190610a71565b508360008d6040516102d99190610844565b908152602001604051809103902060080190816102f69190610a71565b508260008d6040516103089190610844565b908152602001604051809103902060090190816103259190610a71565b508160008d6040516103379190610844565b9081526020016040518091039020600a0190816103549190610a71565b506040518060400160405280601381526020017f55736572204461746120496e736572746564210000000000000000000000000081525090509b9a5050505050505050505050565b6000604051905090565b600080fd5b600080fd5b600080fd5b600080fd5b6000601f19601f8301169050919050565b7f4e487b7100000000000000000000000000000000000000000000000000000000600052604160045260246000fd5b610403826103ba565b810181811067ffffffffffffffff82111715610422576104216103cb565b5b80604052505050565b600061043561039c565b905061044182826103fa565b919050565b600067ffffffffffffffff821115610461576104606103cb565b5b61046a826103ba565b9050602081019050919050565b82818337600083830152505050565b600061049961049484610446565b61042b565b9050828152602081018484840111156104b5576104b46103b5565b5b6104c0848285610477565b509392505050565b600082601f8301126104dd576104dc6103b0565b5b81356104ed848260208601610486565b91505092915050565b60006020828403121561050c5761050b6103a6565b5b600082013567ffffffffffffffff81111561052a576105296103ab565b5b610536848285016104c8565b91505092915050565b600081519050919050565b600082825260208201905092915050565b60005b8381101561057957808201518184015260208101905061055e565b60008484015250505050565b60006105908261053f565b61059a818561054a565b93506105aa81856020860161055b565b6105b3816103ba565b840191505092915050565b600060208201905081810360008301526105d88184610585565b905092915050565b60008060008060008060008060008060006101608c8e031215610606576106056103a6565b5b60008c013567ffffffffffffffff811115610624576106236103ab565b5b6106308e828f016104c8565b9b505060208c013567ffffffffffffffff811115610651576106506103ab565b5b61065d8e828f016104c8565b9a505060408c013567ffffffffffffffff81111561067e5761067d6103ab565b5b61068a8e828f016104c8565b99505060608c013567ffffffffffffffff8111156106ab576106aa6103ab565b5b6106b78e828f016104c8565b98505060808c013567ffffffffffffffff8111156106d8576106d76103ab565b5b6106e48e828f016104c8565b97505060a08c013567ffffffffffffffff811115610705576107046103ab565b5b6107118e828f016104c8565b96505060c08c013567ffffffffffffffff811115610732576107316103ab565b5b61073e8e828f016104c8565b95505060e08c013567ffffffffffffffff81111561075f5761075e6103ab565b5b61076b8e828f016104c8565b9450506101008c013567ffffffffffffffff81111561078d5761078c6103ab565b5b6107998e828f016104c8565b9350506101208c013567ffffffffffffffff8111156107bb576107ba6103ab565b5b6107c78e828f016104c8565b9250506101408c013567ffffffffffffffff8111156107e9576107e86103ab565b5b6107f58e828f016104c8565b9150509295989b509295989b9093969950565b600081905092915050565b600061081e8261053f565b6108288185610808565b935061083881856020860161055b565b80840191505092915050565b60006108508284610813565b915081905092915050565b7f4e487b7100000000000000000000000000000000000000000000000000000000600052602260045260246000fd5b600060028204905060018216806108a257607f821691505b6020821081036108b5576108b461085b565b5b50919050565b60008190508160005260206000209050919050565b60006020601f8301049050919050565b600082821b905092915050565b60006008830261091d7fffffffffffffffffffffffffffffffffffffffffffffffffffffffffffffffff826108e0565b61092786836108e0565b95508019841693508086168417925050509392505050565b6000819050919050565b6000819050919050565b600061096e6109696109648461093f565b610949565b61093f565b9050919050565b6000819050919050565b61098883610953565b61099c61099482610975565b8484546108ed565b825550505050565b600090565b6109b16109a4565b6109bc81848461097f565b505050565b5b818110156109e0576109d56000826109a9565b6001810190506109c2565b5050565b601f821115610a25576109f6816108bb565b6109ff846108d0565b81016020851015610a0e578190505b610a22610a1a856108d0565b8301826109c1565b50505b505050565b600082821c905092915050565b6000610a4860001984600802610a2a565b1980831691505092915050565b6000610a618383610a37565b9150826002028217905092915050565b610a7a8261053f565b67ffffffffffffffff811115610a9357610a926103cb565b5b610a9d825461088a565b610aa88282856109e4565b600060209050601f831160018114610adb5760008415610ac9578287015190505b610ad38582610a55565b865550610b3b565b601f198416610ae9866108bb565b60005b82811015610b1157848901518255600182019150602085019450602081019050610aec565b86831015610b2e5784890151610b2a601f891682610a37565b8355505b6001600288020188555050505b50505050505056fea2646970667358221220092d41b00bf49d743d19f9de0a2a97be13460abd50c9304da95fc2bcd6836f4364736f6c63430008130033",
  "immutableReferences": {},
  "source": "// SPDX-License-Identifier: MIT\r\npragma solidity 0.8.19;\r\npragma experimental ABIEncoderV2;\r\n\r\ncontract HealthData{\r\n    struct user{\r\n        string name;\r\n        string date;\r\n        string totalSteps;\r\n        string totalDistance;\r\n        string veryActiveDist;\r\n        string veryActiveMins;\r\n        string moderateActiveDist;\r\n        string fairlyActiveMins;\r\n        string lightActiveDist;\r\n        string lightlyActiveMins;\r\n        string caloriePrediction;\r\n    }\r\n    mapping(string => user) userAnalysis;\r\n\r\n    function insUserData(string memory _name, string memory _date, string memory _totalSteps,\r\n        string memory _totalDistance, string memory _veryActiveDist, string memory _veryActiveMins,\r\n        string memory _moderateActiveDist, string memory _fairlyActiveMins, string memory _lightActiveDist,\r\n        string memory _lightlyActiveMins, string memory _caloriePrediction) public returns(string memory ack){\r\n                userAnalysis[_name].name = _name;\r\n                userAnalysis[_name].date = _date;\r\n                userAnalysis[_name].totalSteps = _totalSteps;\r\n                userAnalysis[_name].totalDistance = _totalDistance;\r\n                userAnalysis[_name].veryActiveDist = _veryActiveDist;\r\n                userAnalysis[_name].veryActiveMins = _veryActiveMins;\r\n                userAnalysis[_name].moderateActiveDist = _moderateActiveDist;\r\n                userAnalysis[_name].fairlyActiveMins = _fairlyActiveMins;\r\n                userAnalysis[_name].lightActiveDist = _lightActiveDist;\r\n                userAnalysis[_name].lightlyActiveMins = _lightlyActiveMins;\r\n                userAnalysis[_name].caloriePrediction = _caloriePrediction;\r\n                ack=\"User Data Inserted!\";\r\n                return(ack);\r\n    }\r\n\r\n    function getUserData(string memory _name) public view returns(string memory){\r\n        return(userAnalysis[_name].caloriePrediction);\r\n    }\r\n}\r\n",
  "sourcePath": "C:\\Users\\chama\\Desktop\\MCA Project\\HealthTracker\\codebase\\solidity\\contracts\\HealthData.sol",
  "compiler": {
    "name": "solc",
    "version": "0.8.19+commit.7dd6d404.Emscripten.clang"
  },
  "schemaVersion": "3.4.13",
  "updatedAt": "2023-04-27T20:10:59.070Z",
  "devdoc": {
    "kind": "dev",
    "methods": {},
    "version": 1
  },
  "userdoc": {
    "kind": "user",
    "methods": {},
    "version": 1
  }
}